:200000000C9485010C94AD010C94AD010C94AD010C94AD010C94AD010C94AD010C94AD0198
:200020000C94AD010C94AD010C94841B0C94311A0C94AD010C94AD010C94AD010C94AD01C2
:200040000C94AD010C94AD010C94AD010C94AD010C94AD010C94AD010C94AD010C94A11429
:200060000C94AD010C94AD010C94AD010C94AD010C94AD010C94AD010C94AD010C94AD0110
:200080000C94AD010C94AD010C94AD010C94AD010C9477100C94AD010C94AD010C94AD0117
:2000A0000C94AD010C94AD010C94AD013A143F1444144E14981498149814581462146C1495
:2000C0007614831498148B14AA15AD15A015A415CE15CE15CE15B115B515B915BF15C31512
:2000E000CE15C9150000000200080E0000030401000B000000000000000000000000000014
:200100000000040802011040804010204080408008020401804020100201108010204040CE
:20012000040404040403040502020202040302020202060606060606040402020204000052
:200140000000250028002B002E00310000000000240027002A002D003000080B00020202DD
:2001600001000904000001020200000524001001052401010104240206052406000107059A
:20018000810310004009040100020A000000070502024000000705830240000000C180818E
:2001A000C11201000202000040412337800001010200011201000200000040412337800097
:2001C00001010200011803410072006400750069006E006F0020004C004C004300220341CC
:2001E0000072006400750069006E006F0020004D006900630072006F0020002000200004F0
:2002000003090400000000000000002A2B2800000000000000000000000000000000000051
:200220000000002C9EB4A0A1A2A434A6A7A5AE362D3738271E1F20212223242526B333B61E
:200240002EB7B89F8485868788898A8B8C8D8E8F909192939495969798999A9B9C9D2F3155
:2002600030A3AD350405060708090A0B0C0D0E0F101112131415161718191A1B1C1DAFB1BC
:20028000B0B50009040200010300000009210101000122650007058403400001050109024D
:2002A000A1010901A1008501050919012903150025019503750181029501750581030501B1
:2002C0000930093109381581257F750895038106C0C005010906A1018502050719E029E7C1
:2002E0001500250175019508810295017508810395067508150025650507190029658100AB
:20030000C000340A960F6618121D11241FBECFEFDAE0DEBFCDBF16E0A0E0B1E0E8EDFBE320
:2003200002C005900D92AA35B107D9F718E0AAE5B6E001C01D92AF39B107E1F711E0C5E8BD
:20034000D1E004C02197FE010E94961DC138D107C9F70E9477180C94EA1D0C940000CF92B2
:20036000DF92EF92FF920F931F93CF93DF93EC018B01FC0162E477E581E492E59F012C1BF7
:200380003D0B2017310784F421916B017C01C20ED11CE11CF11CA70196016FEE7EEB8DE456
:2003A00093ED0E941D1DEACFDF91CF911F910F91FF90EF90DF90CF900895CF92DF92EF923C
:2003C000FF920F931F93CF93DF93CDB7DEB72E970FB6F894DEBF0FBECDBF63E275E087E33B
:2003E00098E00E9495166CE171E087E398E00E9495166BE471E087E398E00E9495166EE648
:2004000071E087E398E00E94951665E275E087E398E00E9495166DE971E087E398E00E9466
:20042000781600E010E087E398E00E946E1718161906CCF408301105B4F478018FEFE81A59
:20044000F80A87E398E00E949217E1E0F0E0EC0FFD1FE00FF11F8083682F87E398E00E94A8
:200460007A168701E0CFFE01E00FF11F80818D3061F08A3051F008301105A9F6FE013196FA
:200480009E01275F3F4F8F010AC002301105B1F78981813799F777C0E217F30739F08191A8
:2004A00080538A30C8F36AEC71E069C0AE01465F5F4F6EE48AE596E00E94510868E070E058
:2004C000C8010E94AF01CA84DB84EC84FD846C157D058E059F0551F16AEC71E087E398E05E
:2004E0000E94951668ED71E087E398E00E9478164A855B856C857D852AE030E087E398E059
:200500000E945C1765EE71E087E398E00E94781668E070E0C8010E94AF01AB01BC012AE0EA
:2005200030E087E398E00E945C172DC061EF71E087E398E00E94951628E030E0A80164E1F1
:200540008AE596E00E9455088AE596E00E94C509AE01425F5F4F60E18AE596E00E9449084B
:200560008E85823081F443E060E18AE596E00E949F098AE596E00E94C50962E172E087E35A
:2005800098E00E9495162E960FB6F894DEBF0FBECDBFDF91CF911F910F91FF90EF90DF90EE
:2005A000CF900895CF93DF93CDB7DEB7C756D1400FB6F894DEBF0FBECDBF2CE030E0AE0112
:2005C000445A5E4F60E18AE596E00E943B072BE530E0AE014F5F5E4F63E58AE596E00E94CD
:2005E0003B074CE050E0BE01645A7E4FCE0101960E941B034BE550E0BE016F5F7E4FCE0164
:2006000001960E947103CF5FDE4F8881C150D1408D3339F4BE016F5F7E4F87E398E00E94DC
:200620009516C959DE4F0FB6F894DEBF0FBECDBFDF91CF910895AF92BF92CF92DF92EF9227
:20064000FF920F931F93CF93DF938C017B016A0141155105C9F161157105B1F1EC01FC018F
:2006600020E030E021932F5F3F4F211561E03607C9F7E0E0F0E090E0A12CBB24B39448816A
:20068000242F30E0290F311DCF01B6010E94411DD701A80FB91F8C91B901680F711D87FD23
:2006A0007A95CB01B5010E94411D982FD801A80FB11D8C9189934C933196E11571E0F70760
:2006C000F1F680E090E002C081E090E0DF91CF911F910F91FF90EF90DF90CF90BF90AF9046
:2006E0000895EF92FF920F931F93CF93DF93EC016115710561F14115510549F1DB0130E026
:2007000020E0CD01861B970B84179507ECF42F5FE22FF0E07F01EC0EFD1EF7019081390F5C
:200720008E01030F111DF8018081F7018083F8019083F7018081980FFE01E90FF11D9C9117
:20074000808189278D93DDCF80E090E002C081E090E0DF91CF911F910F91FF90EF900895EE
:20076000EF92FF920F931F93CF93DF93CDB7DEB7CB54D1090FB6F894DEBF0FBECDBF2C9624
:200780001FAE2C978AE0E2E1F1E0DE01AF5BBF4F01900D928A95E1F7AE01455B5F4F61E16E
:2007A0008AE596E00E94490865E275E087E398E00E9495166BE272E087E398E00E949516C8
:2007C0002C968FAD2C97853048F062E772E087E398E00E94951681E090E0E3C066E872E08D
:2007E00087E398E00E9478166EE872E087E398E00E9478162C966FAD2C9770E06F5F7F4FA0
:200800004AE050E087E398E00E9447176AE374E087E398E00E9478162C968FAD2C97FE0129
:20082000EF5BFF4FE80FF11DE80FF11D6081718187E398E00E94951666E872E087E398E092
:200840000E94781600E010E087E398E00E946E17181619060CF0A0C0003211050CF486C058
:20086000C8010197E1E2F0E0EC0FFD1FE80FF91F20812D3041F12A3031F10032110521F752
:20088000E1E2F0E0EC0FFD1FE80FF91F10822C968FAD2C97823039F158F48823E9F08130EF
:2008A00099F520E230E0AE014F5F5F4F64E228C0833001F1843041F520E230E0AE014F5F61
:2008C0005F4F64E41DC002301105D1F629A12137B9F68FEF9FEF65C020E230E0AE014F5FC5
:2008E0005F4F60E20DC020E230E0AE014F5F5F4F6BE206C020E230E0AE014F5F5F4F68E3A3
:200900008AE596E00E943B074981552747FD5095BE016E5F7F4FCE0181960E94D41D892B18
:2009200011F568E972E087E398E00E9478162C968FAD2C978F5F2C968FAF2C97853030F4B1
:2009400061EA72E087E398E00E9495162C964FAD2C9761E18AE596E00E949F098AE596E0F4
:200960000E94C5092DCF61EB72E026CF78018FEFE81AF80A87E398E00E949217E1E2F0E0BD
:20098000EC0FFD1FE00FF11F8083682F87E398E00E947A16870158CF0115110509F454CF98
:2009A0005FCFC55BDF4F0FB6F894DEBF0FBECDBFDF91CF911F910F91FF90EF900895CF9248
:2009C000DF92EF92FF921F93CF93DF93CDB7DEB7A4970FB6F894DEBF0FBECDBF19A21AA2FC
:2009E0001BA21CA2AE014F5D5F4F62E18AE596E00E944D0865E275E087E398E00E94951689
:200A00006AEB73E087E398E00E94951668EF73E087E398E00E94781649A15AA16BA17CA135
:200A20002AE030E087E398E00E94FD166AED74E087E398E00E94951689A19AA1ABA1BCA11D
:200A40008F3F9F4FA105B10539F46BE074E087E398E00E94951634C16EE174E087E398E009
:200A60000E947816E12CF12C87E398E00E946E17181619060CF0EEC080E2E816F1040CF4C7
:200A8000EEC0FE01EE0DFF1D80818D3039F08A3029F020E2E216F10439F708C082E0E81691
:200AA000F10421F48981813709F4D1C065E275E087E398E00E949516198180ED810F8A30C0
:200AC00008F0A4CF6DE374E087E398E00E9478161982E12CF12C87E398E00E946E171816F9
:200AE00019060CF0D2C020E2E216F1040CF4D2C0670181E0C81AD108E1E0F0E0EC0FFD1F9C
:200B0000EC0DFD1D80818D3031F08A3021F020E2E216F10401F765E275E087E398E00E9411
:200B2000951682E0E816F10421F48981813709F48EC0E1E0F0E0EC0FFD1FEC0DFD1D108246
:200B4000CE0101960E94B61D6C01EE24D7FCE094FE2C89A19AA1ABA1BCA18C159D05AE05C6
:200B6000BF050CF471C0C114D104E104F10409F46BC064E088E298E00E9428126AE070E038
:200B80000E942D1DA0E0B0E0412F552747FD509540535109662757FD6095762F84179507A5
:200BA000A607B70729F56FE574E087E398E00E9478162AE030E0B701A60187E398E00E94F5
:200BC000FD166FE874E087E398E00E949516CC0CDD1CEE1CFF1C89A19AA1ABA1BCA1C80E4E
:200BE000D91EEA1EFB1EC9A2DAA2EBA2FCA220C068E974E087E398E00E9478162AE030E01A
:200C0000B701A60187E398E00E94FD1661EB74E087E398E00E94951689A19AA1ABA1BCA101
:200C20008C199D09AE09BF0989A39AA3ABA3BCA349A15AA162E18AE596E00E94B2098AE5FB
:200C400096E00E94C509E2CE6CEB74E0DBCE8FEF9FEF36C0E114F10409F406CF12CF6701A3
:200C60002FEFC21AD20A87E398E00E949217E1E0F0E0EC0FFD1FEE0DFF1D8083682F87E3AE
:200C800098E00E947A167601EFCEE114F10409F422CF2ECF67018FEFC81AD80A87E398E015
:200CA0000E949217E1E0F0E0EC0FFD1FEE0DFF1D8083682F87E398E00E947A1676010BCF2B
:200CC000A4960FB6F894DEBF0FBECDBFDF91CF911F91FF90EF90DF90CF900895FC01F39515
:200CE000885F9E4F1192E817F907E1F70895CF92DF92EF92FF920F931F93CF93DF93EB0111
:200D00008A01FB0162E477E581E492E59F012C1B3D0B2017310784F421916B017C01C20E4D
:200D2000D11CE11CF11CA70196016FEE7EEB8DE493ED0E941D1DEACFDF91CF911F910F9111
:200D4000FF90EF90DF90CF9008958F929F92AF92BF92EF92FF920F931F93CF93DF93CDB778
:200D6000DEB7DA950FB6F894DEBF0FBECDBF7C0128E030E0AE0147505F4F60E088E298E07D
:200D80000E945F13892B09F44EC0C750DF4F88819981AA81BB81C95FD0408E349444A844F3
:200DA000B34409F043C000E010E041E050E04C0F5D1F400F511F68E0600F28E030E088E250
:200DC00098E00E945F13085F1F4F083F110569F728E030E0AE0147505F4F64E088E298E0C3
:200DE0000E945F13C750DF4F88809980AA80BB80C95FD04048EF50E0BE016F5F7F4FC70152
:200E00000E947706681579058A059B0591F4A701539528E030E068E088E298E00E945F131E
:200E200081E090E008C08FEF9FEF05C080E090E002C082E090E0D3950FB6F894DEBF0FBEC1
:200E4000CDBFDF91CF911F910F91FF90EF90BF90AF909F908F900895FC01F395DA01885F18
:200E60009E4F21912D93E817F907D9F7FA01608780E090E008952F923F924F925F926F9290
:200E80007F928F929F92AF92BF92CF92DF92EF92FF920F931F93CF93DF93CDB7DEB762973F
:200EA0000FB6F894DEBF0FBECDBF6C01162F5A017901862F887F382E862F877009F44CC08D
:200EC0004E018AE0880E911C28E030E0A401632D88E298E00E945F13AE014F5F5F4F632D38
:200EE000C6010E942C0797FF03C08FEF9FEFB8C049E050E0BE016F5F7F4FC6010E941B033E
:200F000048E050E0B401C6010E947103232D30E0E12FF0E0C9018E1B9F0B08968E159F05A5
:200F20001CF01E0D131901C018E0E21BF30BE80DF91DD5019F01612F70E08F01021B130B6E
:200F4000CF0188199909861797071CF481918D93F4CF88E0380E02C000E010E0E01AF10A09
:200F60002701F7FE03C087E0480E511C33E0559447943A95E1F7612C712C232C201A6414BE
:200F8000750464F54501800E911E28E030E0A401722D700F672F88E298E07A8B0E945F1390
:200FA000AE014F5F5F4F7A89672FC6010E942C0797FD9BCF49E050E0BE016F5F7F4FC60178
:200FC0000E941B0348E050E0B401C6010E947103085F1F4F8FEF681A780AD1CFC20123E0AA
:200FE000880F991F2A95E1F7E81AF90A1E141F041CF080E090E034C088E0489E300C112422
:2010000028E030E0AE01465F5F4F632D88E298E00E945F13AE014F5F5F4F632DC6010E942C
:201020002C0797FD62CF49E050E0BE016F5F7F4FC6010E941B0348E050E0BE01665F7F4FD3
:20104000C6010E947103DE011A96F501E00FF11FEA0EFB1E8D918193AE15BF05D9F7C9CFFD
:2010600062960FB6F894DEBF0FBECDBFDF91CF911F910F91FF90EF90DF90CF90BF90AF90A7
:201080009F908F907F906F905F904F903F902F90089521E030E00C943B0722E030E00C9456
:2010A0003B0724E030E00C943B073F924F925F926F927F928F929F92AF92BF92CF92DF928D
:2010C000EF92FF920F931F93CF93DF93CDB7DEB761970FB6F894DEBF0FBECDBF7C01162FBC
:2010E0005A016901862F887F582E862F877009F460C04E019AE0890E911C28E030E0A40156
:20110000652D88E298E00E945F13AE014F5F5F4F652DC7010E942C0797FDF7C049E050E069
:20112000BE016F5F7F4FC7010E941B0348E050E0B401C7010E947103852D90E0E12FF0E0DF
:201140009C012E1B3F0B285F3F4F2C153D051CF01C0D151901C018E0D501E81BF90BE80DD9
:20116000F91D9F01612F70E08F01021B130BCF0188199909861797071CF48D918193F4CFBB
:2011800049E050E0BE016F5F7F4FC7010E941B0348E050E0B401C7010E94710328E030E010
:2011A000A401652D88E298E00E94231388E0580E02C000E010E0C01AD10A3601D7FE03C05A
:2011C00097E0690E711C33E0759467943A95E1F7812C912C452C401A86149704E4F5F5019D
:2011E000E00FF11F80E090E02191019688309105D9F7EAE0F0E0EC0FFD1FE00FF11F208366
:20120000342C300EAE014F5F5F4F632DC7010E942C0797FD7AC049E050E0BE016F5F7F4F76
:20122000C7010E941B0348E050E0BE01665F7F4FC7010E94710328E030E0AE01465F5F4F84
:20124000632D88E298E00E942313085F1F4F8FEF881A980AC1CFC30123E0880F991F2A9548
:20126000E1F7C81AD90A1C141D040CF04DC098E0699E500C112428E030E0AE01465F5F4F4D
:20128000652D88E298E00E945F13AE014F5F5F4F652DC7010E942C0797FD37C049E050E0A8
:2012A000BE016F5F7F4FC7010E941B0348E050E0BE01665F7F4FC7010E947103F501E00FDE
:2012C000F11FDE011A96CA0EDB1E81918D93AC15BD05D9F749E050E0BE016F5F7F4FC7019D
:2012E0000E941B0348E050E0BE01665F7F4FC7010E94710328E030E0AE01465F5F4F652DFA
:2013000088E298E00E94231302C08FEF9FEF61960FB6F894DEBF0FBECDBFDF91CF911F9187
:201320000F91FF90EF90DF90CF90BF90AF909F908F907F906F905F904F903F900895CF93AB
:20134000DF931F92CDB7DEB7498321E030E0AE014F5F5F4F0E94550880E090E00F90DF918B
:20136000CF910895CF93DF9300D0CDB7DEB749835A8322E030E0AE014F5F5F4F0E945508EE
:201380000F900F90DF91CF910895EF92FF920F931F93CF93DF93CDB7DEB7DA950FB6F8948F
:2013A000DEBF0FBECDBF7C0100E010E041E050E04C0F5D1F400F511F68E0600F28E030E034
:2013C00088E298E00E945F13085F1F4F083F110569F748EF50E0BE016F5F7F4FC7010E9459
:2013E00077062EE4C750DF4F2883C95FD04024E4C650DF4F2883CA5FD04028E4C550DF4FB7
:201400002883CB5FD04023E4C450DF4F2883CC5FD040C350DF4F6883CD5FD040C250DF4F10
:201420007883CE5FD040C150DF4F8883CF5FD040C050DF4F9883C050D14028E030E0AE01AB
:2014400047505F4F60E088E298E00E942313D3950FB6F894DEBF0FBECDBFDF91CF911F911E
:201460000F91FF90EF9008958AE596E00C946E06EF92FF920F931F93CF93DF93C0E1EC2E33
:20148000F12CC0E0D0E000E010E088E298E00E94101488E298E00E94A71297FD03969595D3
:2014A000879595958795080F191F88E298E00E94AB1297FD03969595879595958795C80FAA
:2014C000D91F41E0E41AF10801F7980117FF02C0215F3F4FF4E035952795FA95E1F7CE01F5
:2014E000D7FD0F96E4E095958795EA95E1F72E3C4FEF34073CF4AC014D5E5F4F473251052A
:2015000060F10AC0233331053CF0843191057CF48D3E4FEF940724F58E3C4FEF94073CF4AD
:20152000A9014D5E5F4F47325105E8F009C08333910534F0A9014D5E5F4F47325105B0F056
:201540002D5E3F4F2732310508F04CC04396879708F048C080E090E00BC082E090E008C0B3
:2015600081E090E005C084E090E002C083E090E020916407309165072817390799F1209169
:20158000620730916307A9014F5F5F4FFA01EE0FFF1FE95FF94F608171816730710539F4FE
:2015A000109263071092620781E090E01DC0220F331FF901E95FF94F2081318182179307D3
:2015C00049F49093650780936407509363074093620708C0109263071092620790936507CA
:2015E0008093640780E090E0DF91CF911F910F91FF90EF900895CF93DF931F92CDB7DEB734
:20160000AE014F5F5F4F60E18AE596E00E94490889810F90DF91CF910895482F60E18AE569
:2016200096E00E949F098AE596E00E94C5090895CF93DF93CDB7DEB761970FB6F894DEBF25
:201640000FBECDBF91E1E2EEF4E0DE01119601900D929A95E1F7982F92959F70E1E0F0E0D0
:20166000EC0FFD1FE90FF11D9081FB0190838F70E1E0F0E0EC0FFD1FE80FF11D8081FB0184
:201680008183128261960FB6F894DEBF0FBECDBFDF91CF910895EF92FF920F931F93CF933F
:2016A000DF93CDB7DEB7C350D1400FB6F894DEBF0FBECDBF65E275E087E398E00E94951669
:2016C00063EF74E087E398E00E94951628E030E0AE014F5F5F4F60E088E298E00E945F13DC
:2016E00028E030E0AE01475F5F4F60E088E298E00E945F1320EF30E0AE014F5E5F4F60E12F
:201700008AE596E00E943B0700E010E0BE016F5F7E4F802F0E94180BBE016F5F7E4F87E39E
:2017200098E00E9478166AE374E087E398E00E947816E12CF12CF701E00FF11F81E090E05C
:201740008C0F9D1FE80FF91FBE016F5F7E4F80810E94180BBE016F5F7E4F87E398E00E9425
:2017600078166BE374E087E398E00E9478169FEFE91AF90A80E1E816F104E9F665E275E0C4
:2017800087E398E00E949516005F1F4F011591E0190709F0BBCF65E275E087E398E00E9403
:2017A0009516CD5FDE4F0FB6F894DEBF0FBECDBFDF91CF911F910F91FF90EF900895809102
:2017C000660790916707029714F00C944B0B089567E075E087E398E00E94781666E275E092
:2017E00087E398E00E94951661E375E087E398E00E9495166EE375E087E398E00E9495161D
:2018000080916607909167071816190634F46BE475E087E398E00E947816809166079091F1
:201820006707029734F06EE575E087E398E00E94781661E775E087E398E00C947816CF92B5
:20184000DF92EF92FF920F931F93CF93DF93CDB7DEB729970FB6F894DEBF0FBECDBFCE01EE
:2018600001967C018C016801CE18DF08F9E0CF16D10479F087E398E00E946E17181619063F
:20188000ACF787E398E00E949217F80181938F01EACF28E030E0AE014E5F5F4F698188E2AC
:2018A00098E00E9423136FE087E398E00E94DE1729960FB6F894DEBF0FBECDBFDF91CF913A
:2018C0001F910F91FF90EF90DF90CF900895CF93DF93CDB7DEB729970FB6F894DEBF0FBED7
:2018E000CDBF87E398E00E946E1718161906CCF787E398E00E949217898328E030E0AE0143
:201900004E5F5F4F682F88E298E00E945F136EE087E398E00E94DE1748E050E0BE016E5F34
:201920007F4F87E398E00E943B1629960FB6F894DEBF0FBECDBFDF91CF9108950F931F933D
:2019400060E875E287E398E00E94651888E298E00E94D0128AE596E00E94A5060197D9F0EE
:201960006CE775E087E398E00E94951687E398E00E946E1718161906CCF787E398E00E94F3
:2019800092178F3019F40E941F0CF0CF8E3071F70E94670CEBCF0E94FB0A90E090936707A9
:2019A0008093660708EC10E020E030E048EB51E060E070E088E298E00E94A41108EC10E0A2
:2019C00020E030E044E952E060E070E088E298E00E94A4110CE211E020E030E04AEC53E077
:2019E00060E070E088E298E00E94A4116FE975E087E398E00E9495161F910F910C94E80B5F
:201A0000CF93DF9387E398E00E946E17181619060CF083C087E398E00E949217EC018F3084
:201A200019F40E941F0C79C08E3019F40E94670C74C06C2F87E398E00E947A16CE01992741
:201A400083339105A9F04CF48133910571F0C29709F05BC00E94DF045EC08836910559F009
:201A60008D36910509F448C050C00E94B00353C00E94DD0150C063EC75E087E398E00E94D8
:201A8000951664ED75E087E398E00E94951665E275E087E398E00E94951661EE75E087E3ED
:201AA00098E00E9478160E94FB0A90E09093670780936607880F991FFC01E050FF4F6081AB
:201AC000718187E398E00E9495168091660790916707892B41F481E090E09093670780937A
:201AE00066070E940D0B8091660790916707039791F40E94D2020FC0809166079091670741
:201B000002975CF00E94DF0B06C065E275E087E398E00E9495160E94E80B0E94380A892B96
:201B200031F1C3E0D0E020E040E060E888E298E00E94811264E670E080E090E00E94101580
:201B400020E040E060E088E298E00E94811264E670E080E090E00E941015219721F782E0AB
:201B600090E090936707809366070E940D0B60E070E088E298E00E946A12892B09F4FCC02D
:201B80000E94FB0A282F30E03093670720936607813009F488C008F453C0823009F4B6C0BC
:201BA000833009F0E9C020E840E060E088E298E00E94811264EF71E080E090E00E94101516
:201BC00020E040E060E088E298E00E94811264E670E080E090E00E94101520E840E060E0F5
:201BE00088E298E00E94811264EF71E080E090E00E94101520E040E060E088E298E00E94AF
:201C0000811264E670E080E090E00E94101520E840E060E088E298E00E94811264EF71E0DD
:201C200080E090E00E94101520E040E060E088E298E00E94811264E670E080E090E098C0D4
:201C400020E040E860E088E298E00E94811264EF71E080E090E00E94101520E040E060E06A
:201C600088E298E00E94811264E670E080E090E00E94101520E040E860E088E298E00E9430
:201C8000811264EF71E080E090E00E94101520E040E060E088E298E00E94811264E670E065
:201CA00080E090E018C020E040E860E088E298E00E94811264EF71E080E090E00E941015C2
:201CC00020E040E060E888E298E00E94811264EF71E080E090E00E94101520E040E860E0E2
:201CE00088E298E00E94811264EF71E080E090E00E94101520E040E060E088E298E00E94AE
:201D0000811264EF71E080E090E032C020E040E060E888E298E00E94811260E971E080E051
:201D200090E00E94101520E040E860E088E298E00E94811260E971E080E090E00E941015BC
:201D400020E840E060E088E298E00E94811260E971E080E090E00E94101520E040E060E073
:201D600088E298E00E94811260E971E080E090E0DF91CF910C941015DF91CF9108958091CF
:201D8000980790E020919907821B910908959091990780919807981750F4E92FF0E0E65687
:201DA000F84F208130E09F5F9093990702C02FEF3FEFC9010895E091990780919807E81735
:201DC00030F4F0E0E656F84F808190E008958FEF9FEF08950895CF92DF92EF92FF920F93B2
:201DE0001F93CF93DF937C01262F972F8A0180917407882391F0C62FD72F6E01C40ED51E53
:201E0000CC15DD0571F06991D701ED91FC910190F081E02DC7010995F3CF642F822F0E94A4
:201E20004E10C801DF91CF911F910F91FF90EF90DF90CF900895CF93DF931F92CDB7DEB744
:201E40006983209174072223D1F020917507203240F021E030E0FC013383228380E090E07C
:201E600015C080917607E82FF0E0E958F84F998190838F5F809376078093750705C061E050
:201E8000CE0101960E944E1081E090E00F90DF91CF910895FC011382128288EE93E0A0E070
:201EA000B0E084839583A683B7838DE296E0918380830895109299071092980710927607D5
:201EC000109275070C949A0F862F413208F040E26AE977E00E94B80F109299078093980752
:201EE000089521E00C94640F81E08093740760939707109276071092750708950C94740FB4
:201F00000F93062F21E04091750767E777E0809197070E94FC0F10927607109275071092BC
:201F200074070F91089561E00C94800F88E697E00C944A0F1092270881E080932508109287
:201F4000240861E082E00E940B1661E083E00E940B16E9EBF0E080818E7F808380818D7FC6
:201F6000808388E48093B80085E48093BC000895413208F03FC0909127089111FCCF91E0BA
:201F800090932708209325082FEF2093BA071092FF07240F2093FE0790932608909126084A
:201FA000880F892B8093260880912408813041F410922408809126088093BB0085EC01C065
:201FC00085EE8093BC00809127088130E1F38091FF07841710F44091FF0720E038E0FB0159
:201FE000D9018A2F821B841718F48D918193F9CF842F089580E008950F93413208F046C0B0
:20200000909127089111FCCF32E030932708009325083FEF3093BA071092FF074093FE070D
:20202000FB0160E078E0DB013A2F361B341718F431913D93F9CF1092260830912608880F6F
:20204000832B8093260880912408813041F410922408809126088093BB0085EC01C085EEEE
:202060008093BC00222321F0809127088230D1F38091BA078F3F79F08091BA07803241F0C7
:202080008091BA07803331F094E005C091E003C092E001C093E0892F0F910895613298F473
:2020A00020912708243089F46093DC07FC012EED37E0D9018A2F821B861718F481918D935F
:2020C000F9CF80E0089581E0089582E0089585ED8093BC008091BC0084FDFCCF1092270813
:2020E000089585EC8093BC001092270808951F920F920FB60F9211242F933F934F935F9340
:202100006F937F938F939F93AF93BF93EF93FF938091B900887F803609F49CC068F58832B8
:2021200009F45BC090F4803109F454C038F4882309F4F5C0883009F44DC0F5C0883109F48B
:202140004CC0803209F45DC0EEC0803409F468C048F4803309F455C0883309F0E4C08093B4
:20216000BA07A8C0803509F44FC0883509F45DC0883409F0D8C0D5C0883909F4C6C0A8F4DC
:20218000883709F467C038F4883609F463C0803709F460C0C8C0883809F4B7C0803909F40C
:2021A0005FC0803809F0BFC05BC0803B09F485C038F4803A09F466C0883A09F47EC0B3C03F
:2021C000803C09F4A6C0883C09F4A3C0883B09F489C0A9C08091260810C09091FF07809103
:2021E000FE07981770F5E091FF0781E08E0F8093FF07F0E0E050F84F80818093BB0085ECB1
:2022000085C08093BA078DC0E091FF0781E08E0F8093FF078091BB00F0E0E050F84F8083B4
:202220009091FF078091FE076DC0E091FF0781E08E0F8093FF078091BB00F0E0E050F84F93
:2022400080838091250881116CC081E08093240884EA60C083E0809327081092BB07CFCFAA
:202260008091BB07803208F050C0E091BB0781E08E0F8093BB078091BB00F0E0E454F84FB0
:202280008083BDCF8091BB07803230F4E091BB07F0E0E454F84F10820E9467106091BB0726
:2022A00070E0E0912008F09121088CEB97E009951092BB070E94711036C084E080932708DC
:2022C0001092DD071092DC07E0912208F091230809958091DC07811105C081E08093DC076C
:2022E0001092DE07E091DD0781E08E0F8093DD07F0E0E252F84F80818093BB009091DD07EE
:202300008091DC07981708F47ACF85E88093BC000AC085EC8093BC001092270804C0109258
:20232000BA070E946710FF91EF91BF91AF919F918F917F916F915F914F913F912F910F90C4
:202340000FBE0F901F9018954F925F926F927F928F929F92AF92BF92CF92DF92EF92FF9209
:202360000F931F93CF93DF9300D000D0CDB7DEB76A017B012801390160E271EA87E090E0BE
:20238000A70196010E94771D49015A01A7019601C301B2010E941D1D28EE33E040E050E018
:2023A0000E94771DC12CD12C7601C216D306E406F506E4F461E085E029833A834B835C835C
:2023C0000E940B16C4010E94361560E085E00E940B16C4010E9436158FEFC81AD80AE80A3A
:2023E000F80A5C814B813A812981DFCF0F900F900F900F90DF91CF911F910F91FF90EF9075
:20240000DF90CF90BF90AF909F908F907F906F905F904F900895ECE7F0E08081807E8083F4
:2024200080816F71682B6083089580917A00806480937A0080917A0084FFFCCF80917A0048
:20244000806180937A0080917800909179000895CF92DF92EF92FF920F931F93CF93DF9342
:202460008C01D62E21E030E001C0220F6A95EAF7C22EC22FC095D4E0E12CF12C81B38C29EB
:2024800081BB61E070E080E090E00E94101581B38C2381BB6FE1C8010E940B12C8010E9476
:2024A00015126D2DC8010E940B12C8010E941512E80EF91ED15011F7C701969587959695D1
:2024C0008795DF91CF911F910F91FF90EF90DF90CF9008956430710549F464E00E942812E0
:2024E00031E020E0873F934048F007C00E94281231E020E08438934008F430E0832F922F38
:2025000008950F931F93CF93DF9300D0CDB7DEB70FEF10E0C801861B9109BC0189E02A8348
:2025200049830E9413144981B801641B71098AE00E9413142A81B801621B71098BE00F90F2
:202540000F90DF91CF911F910F910C941314FC01808191810895FC018281938108951F93E5
:20256000CF93DF931F92CDB7DEB7162F6DE170E088E697E049830E947E0F612F88E697E085
:202580000E941B0F4981642F88E697E00E941B0F88E697E00F90DF91CF911F910C94930F1B
:2025A000CF93DF93EC0188E697E00E945A0FECE7F0E0808180648083EAE7F0E08081866057
:2025C000808380818068808361E089E00E94CF1561E08BE00E94CF1561E08AE00E94CF1579
:2025E00061E089E00E940B1661E08BE00E940B1661E08AE00E940B1661E085E00E94CF1565
:2026000040E06AE2CE010E94AF126AE070E080E090E00E94101540E06EE0CE010E94AF124B
:2026200061E070E080E090E00E94101541E06AE2CE010E94AF1261E070E080E090E0DF9102
:20264000CF910C941015EF92FF921F93CF93DF93C9010197089758F5E9017A01162F60E580
:2026600070E088E697E00E947E0F612F88E697E00E941B0F10E0812F90E08C179D0754F416
:20268000F701E80FF91F608188E697E00E941B0F1F5FF1CF88E697E00E94930F6AE070E0A0
:2026A00080E090E00E94101580E090E002C08FEF9FEFDF91CF911F91FF90EF900895EF9239
:2026C000FF920F931F93CF93DF93C62F7A018901C9010197089750F560E570E088E697E087
:2026E0000E947E0F6C2F88E697E00E941B0F88E697E00E94930FA80160E570E088E697E013
:202700000E94710FE701E00EF11ECE15DF0561F088E697E00E94BF0E892BB9F388E697E001
:202720000E94C70E8993F1CFC80102C08FEF9FEFDF91CF911F910F91FF90EF900895CF9283
:20274000DF92EF92FF920F931F93CF93DF93CDB7DEB727970FB6F894DEBF0FBECDBF8C0123
:20276000F62E6DE170E088E697E00E947E0F6F2D88E697E00E941B0F88E697E00E94930F0D
:2027800047E050E06DE170E088E697E00E94710FCE0101967C016E0198E0C90ED11C88E641
:2027A00097E00E94C70EF70181937F01EC15FD05B1F78A8190E0982F88272B81822B36E094
:2027C000959587953A95E1F7F801918380838C8190E0982F88272D81822B56E09595879532
:2027E0005A95E1F7938382832E8130E0322F22278F81282B76E0359527957A95E1F73583B0
:20280000248327960FB6F894DEBF0FBECDBFDF91CF911F910F91FF90EF90DF90CF90089574
:2028200060E00C949F131F93CF93DF93182FEB0161E00E94CF15209711F460E004C0CF3FB8
:20284000D10539F461E0812FDF91CF911F910C940B16E12FF0E0EC51FF4FE4914E2F50E0B6
:20286000FA013197EE30F10508F062C0EA5AFF4F0C94961D84B5806884BDC7BD5EC084B545
:20288000806284BDC8BD59C080918000806880938000D0938900C09388004FC08091800004
:2028A000806280938000D0938B00C0938A0045C080919000806880939000D0939900C09358
:2028C00098003BC080919000806280939000D0939B00C0939A0031C08091900088608093C7
:2028E0009000D0939D00C0939C0027C08091C00080688093C0008091C0008F7B8093C00038
:20290000C093CF001AC08091C00080628093C000C093D00012C08091C20088608093C200B0
:202920008091C2008B7F8093C200C093D20005C0C038D1050CF086CF80CFDF91CF911F910D
:2029400008951F920F920FB60F9211242F933F938F939F93AF93BF9380912F0890913008D0
:20296000A0913108B091320830912E0823E0230F2D3720F40196A11DB11D05C026E8230FA6
:202980000296A11DB11D20932E0880932F0890933008A0933108B09332088091330890912F
:2029A0003408A0913508B09136080196A11DB11D8093330890933408A0933508B09336082D
:2029C000BF91AF919F918F913F912F910F900FBE0F901F9018953FB7F89480913308909131
:2029E0003408A0913508B091360826B5A89B05C02F3F19F00196A11DB11D3FBFBA2FA92F72
:202A0000982F8827820F911DA11DB11DBC01CD0142E0660F771F881F991F4A95D1F708951A
:202A2000CF92DF92EF92FF92CF93DF936B017C010E94EB14EB01C114D104E104F10479F07B
:202A40000E94EB146C1B7D0B683E7340A0F381E0C81AD108E108F108C851DC4FECCFDF916D
:202A6000CF91FF90EF90DF90CF900895019739F0880F991F880F991F02970197F1F7089568
:202A8000789484B5826084BD84B5816084BD85B5826085BD85B5816085BDEEE6F0E0808113
:202AA00081608083E1E8F0E01082808182608083808181608083E0E8F0E0808181608083BF
:202AC000E1E9F0E0808182608083808181608083E0E9F0E0808181608083E1ECF0E0808175
:202AE00084608083808182608083808181608083E3ECF0E0808181608083E0ECF0E0808103
:202B000082608083E2ECF0E0808181608083EAE7F0E08081846080838081826080838081DD
:202B200081608083808180688083089590E0FC013197EE30F10590F5EC59FF4F0C94961D74
:202B4000809180008F7703C0809180008F7D80938000089584B58F7702C084B58F7D84BDC7
:202B60000895809190008F7707C0809190008F7D03C080919000877F8093900008958091E2
:202B8000C0008F7703C08091C0008F7D8093C00008958091C200877F8093C2000895CF93B2
:202BA000DF9390E0FC01EE5FFE4F2491FC01E05EFE4F8491882361F190E0880F991FFC0191
:202BC000E45BFE4FC591D491FC01E25CFE4FA591B491611109C09FB7F8948881209582232B
:202BE0008883EC912E230BC0623061F49FB7F8943881822F809583238883EC912E2B2C93A3
:202C00009FBF06C08FB7F894E8812E2B28838FBFDF91CF9108951F93CF93DF93282F30E0A9
:202C2000F901EC51FF4F8491F901EE5FFE4FD491F901E05EFE4FC491CC23C9F0162F8111A8
:202C40000E949615EC2FF0E0EE0FFF1FE25CFE4FA591B4918FB7F894111105C09C91ED2F19
:202C6000E095E92302C0EC91ED2BEC938FBFDF91CF911F910895CF92DF92EF92FF920F930C
:202C80001F93CF93DF936C01EB017B01E40EF51E00E010E0CE15DF0561F06991D601ED919D
:202CA000FC910190F081E02DC6010995080F191FF1CFC801DF91CF911F910F91FF90EF900D
:202CC000DF90CF9008956115710579F0FB0101900020E9F73197AF01461B570BDC01ED9111
:202CE000FC910280F381E02D099480E090E008950C946316DC01ED91FC910190F081E02D2A
:202D000009940F931F93CF93DF93EC016DE00E947A168C016AE0CE010E947A16800F911F6B
:202D2000DF91CF911F910F9108950F931F93CF93DF93EC010E9463168C01CE010E94811611
:202D4000800F911FDF91CF911F910F9108958F929F92AF92BF92CF92DF92EF92FF920F930D
:202D60001F93CF93DF93CDB7DEB7A1970FB6F894DEBF0FBECDBF6C01142FE52FCB01022F74
:202D800019A2223008F40AE07E0121E2E20EF11C802E912CA12CB12C612F7E2FA501940134
:202DA0000E94551D029F1019112481E0E81AF1081A3014F4105D01C0195CF7011083122FE3
:202DC000E32FCA01232B242B252B31F7B701C6010E946316A1960FB6F894DEBF0FBECDBFE9
:202DE000DF91CF911F910F91FF90EF90DF90CF90BF90AF909F908F900895CF92DF92EF920B
:202E0000FF920F931F93CF93DF93EC016A017B012115310579F4E881F9810190F081E02D5A
:202E2000642FDF91CF911F910F91FF90EF90DF90CF9009942A303105E9F477FF1AC06DE25A
:202E40000E947A168C0144275527BA014C195D096E097F092AE0CE010E94A716800F911FD0
:202E6000DF91CF911F910F91FF90EF90DF90CF9008952AE0B701A601CE01DF91CF911F9101
:202E80000F91FF90EF90DF90CF900C94A7169A01AB01662757FD6095762F0C94FD162115AE
:202EA000310541F4DC01ED91FC910190F081E02D642F09940C94A7160F931F93CF93DF93FB
:202EC000EC010E944F178C01CE010E948116800F911FDF91CF911F910F91089580918508CE
:202EE000909186082091870830918808821B930B8F7399270895209185083091860880915A
:202F00008708909188082817390749F0E0918708F0918808EB5BF74F808190E008958FEF90
:202F20009FEF08952091850830918608809187089091880828173907A9F0E0918708F091EF
:202F40008808EB5BF74F808120918708309188082F5F3F4F2F733327309388082093870816
:202F600090E008958FEF9FEF0895CF93DF93C0918508D09186082196CF73DD27809187085D
:202F800090918808C817D90799F082E00E94F3188F3F2FEF920761F0E0918508F091860846
:202FA000EB5BF74F8083D0938608C0938508DFCFDF91CF91089583E00C945A1B0F931F93CA
:202FC000CF93DF931F92CDB7DEB78C01698380910F01882359F041E050E0BE016F5F7F4F19
:202FE00083E00E942419181619063CF081E090E0F8019383828380E090E00F90DF91CF91F2
:203000001F910F910895FC0190819E5F908342E450E06AE571E080E80C94BC19FC018181D3
:203020009081913A59F4813209F04BC047E050E068E071E080E00E94BC1945C0913209F028
:2030400040C0803239F467E070E088E091E00E94031A39C0823209F034C0828180930F01A2
:203060008091080190910901A0910A01B0910B01803B9440A105B10531F580910F0180FDD3
:2030800012C087E797E790930108809300082BE088E190E00FB6F894A895809360000FBE79
:2030A0002093600010C088E10FB6F89480936000109260000FBEA89510920108109200089F
:2030C00002C080E0089581E008950895E7E3F8E01382128288EE93E0A0E0B0E084839583B3
:2030E000A683B7838DE396E09183808308950E94401589E898E00E94641B0E949E0CC0E0E6
:20310000D0E00E94000D2097E1F30E940000F9CF615030F02091F100FC0120830196F8CFEA
:20312000289A84E68093900808952FB7FC012083F89467706093E9000895CF93DF931F9234
:20314000CDB7DEB7682FCE0101960E9495188091F20099819FBF0F90DF91CF910895EF9202
:20316000FF920F931F93CF93DF931F92CDB7DEB790918F08992311F057FF03C08FEF9FEF32
:203180002AC08A017B01682FCE0101960E9495188091F20090E0A801801791070CF4AC01FA
:2031A000842FF70194E6815038F0289A909390082091F1002193F7CF4115510521F080918A
:2031C000F200882321F089818FBFCA0104C08BE68093E800F8CF0F90DF91CF911F910F9168
:2031E000FF90EF900895CF93DF931F92CDB7DEB741E050E0BE016F5F7F4F0E94AF180197D9
:2032000019F4898190E002C08FEF9FEF0F90DF91CF910895CF93DF931F92CDB7DEB7682F18
:20322000CE0101960E9495189091E800892F807295FF04C09091F20080E4891B99819FBF3B
:203240000F90DF91CF9108954F925F926F927F928F929F92AF92BF92CF92DF92EF92FF92B6
:203260000F931F93CF93DF931F92CDB7DEB7A82E6B01B42E052F80918F08882369F0E42E46
:20328000F52E8AEF782E8A2D8072582E9AE3692E8A2D8074482E12C08FEF9FEF50C08A2DE3
:2032A0000E940A19182F81110DC07A947720A1F361E070E080E090E00E941015E114F10458
:2032C00071F733C090E0E816F9060CF41E2D812E912CE818F9086A2DCE0101960E94951822
:2032E000552029F01150A8F01092F100FBCFF601A7FE07C0115058F084918093F1003196FE
:20330000F9CF115020F081918093F100FACFC80CD91C8091E80085FF0FC0E114F10411F491
:2033200041100AC089818FBFC9CF5D9A84E6809391088B2D902F03C06092E800F3CF0F9000
:20334000DF91CF911F910F91FF90EF90DF90CF90BF90AF909F908F907F906F905F904F90B9
:2033600008951092E90010928E0810928D0890938C0880938B0808950F931F93CF93DF9394
:20338000DB01A40FB51FFB016EEFEA17FB0791F187FF02C0249101C0208100918D081091C6
:2033A0008E08C0918B08D0918C080C171D07B4F49091E8009570E1F39091E80092FD1CC059
:2033C0002093F10020918D0830918E082F5F3F4F2F733327232B11F46093E80020918D0820
:2033E00030918E082F5F3F4F30938E0820938D083196CBCFCA0102C08FEF9FEFDF91CF91EF
:203400001F910F9108951F93CF93DF931F92CDB7DEB7162F2091E80022FFFCCF612F798319
:203420000E9488188BEF8093E800812F7981972F0F90DF91CF911F910895CF93DF931F9224
:20344000CDB7DEB71982CE0101960E940318CE0101960E94011C898190E00F90DF91CF9187
:2034600008951F920F920FB60F921124CF92DF92EF92FF921F932F933F934F935F936F93C2
:203480007F938F939F93AF93BF93EF93FF93CF93DF93CDB7DEB76197DEBFCDBF1092E90085
:2034A0008091E80083FFE8C068E0CE010A960E94881882EF8093E8009A8597FF05C08091F9
:2034C000E80080FFFCCF03C08EEF8093E800892F807609F0B6C08B85811105C01092F10068
:2034E0001092F100C2C0282F2D7F213009F4BDC0853049F48091E80080FFFCCF8C858068BB
:203500008093E300B2C0863009F06FC01D85E888F988123069F580E090E00E94B1190E9454
:203520001D1A99E09E012F5F3F4F6901F901292F11922A95E9F799831A8391E09E8390E85F
:2035400098879AEF998720918D0830918E08275F3F4F3C832B838D83C7010E94B11949E018
:2035600050E0B60180E00E94BC190E941D1A7DC0C7010E94B119123241F482E290E00E9454
:203580000C1C892B09F071C074C0113069F488899989089711F410938A0880918A08811112
:2035A00011C063EB71E016C0133009F062C08C85882359F0823061F0813009F05AC065EC4A
:2035C00071E008C061EA71E005C06FEF71E002C06DED71E06115710509F44BC0FB01449190
:2035E00050E080E80E94BC1940C0873009F441C0883021F481E08093F10037C08930A9F587
:203600009370B9F580E090E031E026E341E0480F4093E9003093EB000196FC01E456FE4F12
:20362000E491E093EC002093ED008430910571F78EE78093EA001092EA008C8580938F08AB
:2036400014C0888999890E94B1198E85811105C0CE010A960E940E1806C0823051F4CE01CA
:203660000A960E94341C882321F08EEF8093E80003C081E28093EB0061960FB6F894DEBF7B
:203680000FBECDBFDF91CF91FF91EF91BF91AF919F918F917F916F915F914F913F912F91A1
:2036A0001F91FF90EF90DF90CF900F900FBE0F901F9018958093E9008091F200882319F064
:2036C0008AE38093E800089510928F0881E08093D70080EA8093D80082E189BD09B400FEA8
:2036E000FDCF61E070E080E090E00E94101580E98093D8008CE08093E2001092E000559AB0
:20370000209A5D98289808951F920F920FB60F9211242F933F934F935F936F937F938F9312
:203720009F93AF93BF93EF93FF938091E1001092E10083FF0FC01092E90091E09093EB00DF
:203740001092EC0092E39093ED0010928F0898E09093F00082FF26C083E00E945A1B82E04F
:203760000E949D18882321F087E398E00E94B51780919108882339F08091910881508093DA
:203780009108882369F080919008882359F080919008815080939008811104C0289802C0F2
:2037A0005D98F1CFFF91EF91BF91AF919F918F917F916F915F914F913F912F910F900FBE88
:2037C0000F901F901895EF92FF921F93CF93DF93EC01162FE881F9810480F581E02D09959C
:2037E0007C01E881F9810680F781E02D612FCE010995C7019927DF91CF911F91FF90EF904B
:203800000895FC0190819F5F908349E150E063E872E080E80C94BC1945E650E06CE972E016
:2038200080E80C94BC19EF92FF920F931F93CF93DF931F92CDB7DEB789838B017A0141E073
:2038400050E0BE016F5F7F4F84E00E942419A701B80184E40E9424190F90DF91CF911F91D3
:203860000F91FF90EF900895FC0191818081813A31F481E0913091F0933089F411C08132A6
:2038800071F49B3021F482818093110105C09A3031F482818093100181E00895089580E0E5
:2038A000089548E050E082E00C94131CDC01683810F068582EC0E62FF0E067FF12C0E05862
:2038C000F10981E090E00E2E01C0880F0A94EAF714969C911497892B14968C93149760E020
:2038E00018C0ED5FFD4F6491611109C081E090E013969C938E93129780E090E0089567FFE2
:2039000008C014968C911497826014968C9314976F7716968C911697861751F117968C9112
:203920001797861729F118968C911897861701F119968C9119978617D9F01A968C911A97B9
:203940008617B1F01B968C911B97861789F0FD01369680E090E02191211105C0FD01E80F5B
:20396000F91F668305C0019686309105A1F7BECFCD01BD016C5F7F4F0E94511C81E090E074
:203980000895DC01683810F0685826C0E62FF0E067FF13C0E058F10981E090E00E2E01C049
:2039A000880F0A94EAF7809514969C911497892314968C93149760E00FC0ED5FFD4F64919E
:2039C000662301F167FF08C014968C9114978D7F14968C9314976F77FD01369686E06623AD
:2039E00021F09081961301C01082815031968111F6CFCD01BD016C5F7F4F0E94511C81E025
:203A000090E0089580E090E00895FC011682178210861186128613861482BC016C5F7F4FB4
:203A20000C94511C10929E08E2E9F8E0138212828FE496E0918380830895DB018F939F9398
:203A40000E949C1DBF91AF91A29F800D911DA39F900DB29F900D11240895AA1BBB1B51E193
:203A600007C0AA1FBB1FA617B70710F0A61BB70B881F991F5A95A9F780959095BC01CD012B
:203A8000089597FB072E16F4009407D077FD09D00E942D1D07FC05D03EF4909581959F4FE1
:203AA0000895709561957F4F0895A1E21A2EAA1BBB1BFD010DC0AA1FBB1FEE1FFF1FA2174B
:203AC000B307E407F50720F0A21BB30BE40BF50B661F771F881F991F1A9469F76095709549
:203AE000809590959B01AC01BD01CF010895052E97FB1EF400940E948E1D57FD07D00E9493
:203B0000551D07FC03D04EF40C948E1D50954095309521953F4F4F4F5F4F089590958095EA
:203B2000709561957F4F8F4F9F4F0895EE0FFF1F0590F491E02D09940E94A71DA59F900D2D
:203B4000B49F900DA49F800D911D11240895A29FB001B39FC001A39F700D811D1124911DE0
:203B6000B29F700D811D1124911D0895FC0188279927E89421912032E9F3293010F02E30DA
:203B8000C8F32B3241F02D3239F4689404C00E94E21D820F911D219120532A30C0F31EF46C
:203BA000909581959F4F0895FB01DC014150504030F08D910190801919F40020B9F7881B5D
:203BC000990B08957AE0979F902D879F802D910D11240895F894FFCFF005F605FD050306BF
:203BE00000E10000000000000101C2021603390362038E033D3D3D3D3D3D3D3D3D3D3D3DF7
:203C00003D3D3D3D3D3D3D3D3D3D3D3D3D3D3D3D3D3D3D3D3D3D3D3D3D3D3D3D3D3D3D3D04
:203C20003D3D002020202020202020202020202020576F726C64205761722053696D756CCE
:203C40006174696F6E003D3D3D3D3D3D3D3D3D3D3D3D3D3D3D3D3D3D3D3D3D5C6F2F3D3DD4
:203C60003D3D3D3D3D3D3D3D3D3D3D3D3D3D3D3D3D3D3D3D00456E74657220616363657363
:203C80007320636F646520746F206C61756E6368206E75636C65617220737472696B653A62
:203CA00020000D0A2D204552524F52202D0D0A00526561642073657269616C3A004578700F
:203CC000656374696E673A20000D0A2D204D495353494C4553204C41554E434845442C2093
:203CE000454E4A4F59202D0D0A0021212120474F44204D4F444520454E41424C45442021ED
:203D00002121005175697A7A3E20616E737765722027712720746F2071756974207468652A
:203D20002067616D652C206E616D657320737461727420776974682061206361706974612C
:203D40006C206C65747465722E00596F7520776F6E20746869732067616D652021005175CF
:203D6000697A7A3E20005175657374696F6E2000436F72726563742E00204E6578742071C0
:203D800075657374696F6E2E004E6F70652C2074727920616761696E2E0057686174206946
:203DA000732074686520416E7377657220746F2074686520556C74696D617465205175658B
:203DC0007374696F6E206F66204C6966652C2054686520556E6976657273652C20616E64C4
:203DE0002045766572797468696E67203F005768617420697320746865206D61696E2074D5
:203E00006F776E206F662041737379726961203F00556E63697068657220746869733A208E
:203E2000343133353332203534313231352032343434323220313135340043616E20796FA7
:203E400075206E616D6520476962736F6E2773202A636F6C642A20696E74656C6C6967651D
:203E60006E6365203F0057686F20726561647320506C6179626F7920696E20746865206D6B
:203E80006F7669652027536E65616B65727327203F00466F7274756E653E204765742036AF
:203EA0003535333520636F696E7320746F2077696E20746869732067616D652E20456E747C
:203EC00065722027712720746F20717569742E00466F7274756E653E20596F75206861763B
:203EE000652000596F7520776F6E20746869732067616D652E00466F7274756E653E204249
:203F00006574206F6E206E756D6265722028302D39293A2000466F7274756E653E204E75BD
:203F20006D626572206F6620636F696E7320746F206265743A2000466F7274756E653E20B1
:203F40004C75636B7920796F75202120596F75277665206265656E20726577617264656414
:203F60002077697468200020636F696E73202100466F7274756E653E204E6F70652C207930
:203F80006F75206C6F7374200020636F696E73202E2E2E00466F7274756E653E20596F75D7
:203FA00020646F6E2774206861766520656E6F75676820636F696E732E0030313233343502
:203FC00036373839414243444546004D656D6F72793E2044756D70696E67202E2E2E000D0C
:203FE0000A3E205368616C6C20776520706C617920612067616D65203F0D0A0D0A0020317A
:20400000202D205175697A7A002032202D20466F7274756E65002033202D205761726761BC
:204020006D65002068202D20426164676520696E666F730D0A00206D202D2044756D7020E0
:204040006D656D6F72790D0A000D0A43686F6963653A2000585858204D454D4F5259204390
:204060004F5252555054494F4E20444554454354454420585858003C3C204E64683230319F
:2040800035202D204E6174696F6E616C204C4F4C204167656E6379203E3E000D0A0D0A42BE
:2040A0004144474520494E464F533A002D2D2D2D2D2D2D2D2D2D2D2D0043757272656E7417
:2040C000206D6F64653A200044554D4D5900524F4F4B4945004E494E4A4100474F44000121
:2040E0000000000100000002000000020000000300000004000000030000000400000007A6
:2041000000000000001B0FEB0EBF0EC70EDB0EEA0E00000000DE173B166E1792177B17DB18
:2041200017B51700000000E31B3B16561CC11C051D00FFFFFFFFFFFFFFFFFFFFFFFFFFFFEA
:20414000FFFFFFFFFFFFFFFFFFFFFFFFFFFFFFFFFFFFFFFFFFFFFFFFFFFFFFFFFFFFFFFF7F
:20416000FFFFFFFFFFFFFFFFFFFFFFFFFFFFFFFFFFFFFFFFFFFFFFFFFFFFFFFFFFFFFFFF5F
:20418000FFFFFFFFFFFFFFFFFFFFFFFFFFFFFFFFFFFFFFFFFFFFFFFFFFFFFFFFFFFFFFFF3F
:2041A000FFFFFFFFFFFFFFFFFFFFFFFFFFFFFFFFFFFFFFFFFFFFFFFFFFFFFFFFFFFFFFFF1F
:2070000055C000006EC000006CC000006AC0000068C0000066C0000064C0000062C0000043
:2070200060C000005EC00000F2C400005AC0000058C0000056C0000054C0000052C00000EE
:2070400050C0000078C000004CC000004AC0000048C0000046C0000044C0000042C00000BE
:2070600040C000003EC000003CC000003AC0000038C0000036C0000034C0000032C0000048
:2070800030C000002EC000002CC000002AC0000028C0000026C0000024C0000022C00000A8
:2070A00020C000001EC000001CC0000011241FBECFEFDAE0DEBFCDBF11E0A0E0B1E0E2E3BC
:2070C000FFE702C005900D92A83AB107D9F711E0A8EAB1E001C01D92AE3BB107E1F78FD30B
:2070E00026C78ECFF89410926F0010928100109285001092840081E085BF15BE47985D98ED
:2071000028980C94000008952091B2013091B3012F5F3F4F3093B3012093B201932F37FFA8
:2071200003C08EEF831B982F990F921710F447980895479A08951F920F920FB60F9211246E
:207140002F938F939F93EF93FF9310928500109284008091A8019091A901009741F00197D3
:207160009093A9018093A801892B09F45D988091AA019091AB01009741F001979093AB0128
:207180008093AA01892B09F42898E0E0F0E0859194918F5F9F4F49F08091AC019091AD0153
:2071A00001969093AD018093AC01FF91EF919F918F912F910F900FBE0F901F90189584E0BC
:2071C0008093E9000DC08091E8008B778093E80003C08EB3882351F08091E80082FFF9CFBE
:2071E0008091E80085FFEFCF8091F1000895982F83E08093E9008091E80085FD0DC0809136
:20720000E8008E778093E80003C08EB3882369F08091E80080FFF9CF9093F1005D9A84E6C9
:2072200090E09093A9018093A80108954F925F926F927F928F929F92AF92BF92CF92DF921E
:20724000EF92FF920F931F93CF93DF9384E08093E9008091E80082FF57C2289A84E690E065
:207260009093AB018093AA01AADF182F853481F48CE49DE19093AD018093AC0107B600FC4B
:20728000FDCFF999FECF81E180935700E89503C0843519F494DF8DE00DC28C34E1F38035F9
:2072A000D1F3843721F484E4A2DF80E003C2813611F489E5FFC18134B1F481DF182F7FDFE3
:2072C00090E0880F991FAA2797FDA095BA2F312F330F20E0442737FD4095542F822B932B68
:2072E000A42BB52BB8C1803711F483E5E3C1833549F4C0E0D1E089917ADF21E0C730D20714
:20730000D1F7D9C1863521F481E371DF80E3D2C1833731F487E86BDF85E969DF8EE1CAC149
:207320008536B9F4E0E0F0E093E085E090935700E89507B600FCFDCF80935700E89507B65D
:2073400000FCFDCFE058FF4FA0E7E030FA0771F7A2CF823739F4E1E0F0E089E08093570024
:207360008491A8C1863439F4E0E0F0E089E08093570084919FC18E3439F4E3E0F0E089E0E5
:2073800080935700849196C1813539F4E2E0F0E089E08093570084918DC1823631F489E521
:2073A00026DF80E024DF80E885C1823419F0873609F0E5C01092AD011092AC0100DF082FE8
:2073C000FEDEF82EFCDE682E8554823008F071C1902F80E0CF2DD0E0C82BD92B10926F00B3
:2073E000173609F04BC081E180935700E895DD24CC24C3943FC0E090AE01F090AF010091CC
:20740000B0011091B101B6E46B16D9F4ED2DF0E0EE29FF29E4918E2FEADEDD2081F082E08D
:2074200090E0A0E0B0E0E80EF91E0A1F1B1FE092AE01F092AF010093B0011093B101DC2470
:2074400018C0D801C701B695A7959795879559D5CEDE82E090E0A0E0B0E0E80EF91E0A1FF2
:207460001B1FE092AE01F092AF010093B0011093B1012197209709F0BECF7DC08090AE01F5
:207480009090AF01A090B001B090B10196E4691609F05DC083E0F40180935700E89507B63E
:2074A00000FCFDCF54C0F6E46F1661F5772031F1E090AE01F090AF010091B0011091B1019E
:2074C0007EDED82ECC24852D90E08C299D29F7010C0140925700E895112482E090E0A0E08B
:2074E000B0E0E80EF91E0A1F1B1FE092AE01F092AF010093B0011093B10102C060DE582E1A
:20750000742423C0E090AE01F090AF010091B0011091B10116950795F794E79450DE682FFA
:20752000C701F7D48091AE019091AF01A091B001B091B1010296A11DB11D8093AE01909349
:20754000AF01A093B001B093B101219704C05524772444244394209709F0A5CF96E46916B6
:2075600041F485E0F40180935700E89507B600FCFDCF8DE03CDE82E080936F009CC0833492
:2075800071F40091AE011091AF0119DE90E021E0F8010C0120935700E89511247CCE8336C8
:2075A00019F5E090AE01F090AF010091B0011091B10105DEF701E16090E021E00C0120938C
:2075C0005700E895112482E090E0A0E0B0E0E80EF91E0A1F1B1FE092AE01F092AF0100936A
:2075E000B0011093B10157CE8D3661F4E091AE01F091AF0185E080935700E89507B600FCF2
:20760000FDCF49CE823551F4E091AE01F091AF0105911491812FEBDD802F4CC0843421F5FE
:20762000E090AE01F090AF010091B0011091B10116950795F794E794C2DD682FC70169D4DE
:207640008091AE019091AF01A091B001B091B1010296A11DB11D8093AE019093AF01A093D8
:20766000B001B093B10117CE843609F5E090AE01F090AF010091B0011091B101D801C70142
:20768000B695A795979587953CD4B1DD82E090E0A0E0B0E0E80EF91E0A1F1B1FE092AE010A
:2076A000F092AF010093B0011093B10104C08B3111F08FE39CDD83E08093E9009091E8002B
:2076C0008091E8008E778093E80095FF04C010C08EB38823C9F08091E80080FFF9CF809193
:2076E000E8008E778093E80003C08EB3882361F08091E80080FFF9CF84E08093E9008091F1
:20770000E8008B778093E800DF91CF911F910F91FF90EF90DF90CF90BF90AF909F908F90AC
:207720007F906F905F904F9008959091B601892F8F77813249F58091B7018032A1F081328A
:2077400019F5913A09F58091E800877F8093E8008DE091E067E070E00BD28091E8008B770B
:207760008093E8000895913279F48091E800877F8093E8008DE091E067E070E05DD2809192
:20778000E8008E778093E800089582E061EC42E0B5D083E061E842E1B1D084E060E842E1EF
:2077A000ADC084B7877F84BF88E10FB6F89480936000109260000FBE20E880E090E00FB63F
:2077C000F89420936100809361000FBE81E085BF92E095BF3F9A209A559AE1E6F0E02083A1
:2077E000108247985D982898109289008AEF8093880090936F0083E080938100F0C040911A
:20780000000850910108109201081092000894B714BE88E10FB6F8948093600010926000D5
:207820000FBE292F30E0F901E270F07091FD18C090FF05C0859194918F5F9F4F81F423FFFF
:207840000FC08091090190910A014817590741F0E0E0F0E0859194918F5F9F4F09F042DC64
:20786000A0DF78941092AD011092AC010CC0DEDC36D38091AC019091AD0181549F4110F00D
:207880001092140141DC80911401882381F78091E00081608093E00025DC80E090E0089598
:2078A000FA01923049F0933061F09130F9F485E191E022E130E01EC087E291E02EE330E04D
:2078C00019C0882329F485E691E024E030E012C0813029F489E691E022E230E00BC0823006
:2078E00029F48DE891E028E130E004C080E090E020E030E091838083C90108958093E9004E
:207900008091EB0081608093EB001092ED006093EC004093ED008091EE00881F8827881F62
:2079200008958091B60188238CF403C08EB38823B1F08091E80082FFF9CF8091E8008B772A
:207940008093E80008958EB3882349F08091E80080FFF9CF8091E8008E778093E800089594
:20796000EF92FF920F931F9345D04CD008ED10E0F80180818F77808380818068808380819B
:207980008F7D808319BC1EBA1092B40180EEE82EF12CF70180818B7F8083F8018081816052
:2079A000808380E060E042E0A9DFE1EEF0E080818E7F8083E2EEF0E0808181608083808144
:2079C00088608083F70180818E7F8083F8018081806180831F910F91FF90EF900895E7ED06
:2079E000F0E08081816080838AE482BF81E08093B501B6CFE8EDF0E080818E7F808310921C
:207A0000E20008951092DA001092E10008951F920F920FB60F9211242F933F934F935F93F6
:207A20006F937F938F939F93AF93BF93EF93FF938091DA0080FF1BC08091D80080FF17C0B2
:207A40008091DA008E7F8093DA008091D90080FF0BC080E189BD82E189BD09B400FEFDCF36
:207A600081E08EBB3BD203C019BC1EBA37D28091E10080FF17C08091E20080FF13C0809138
:207A8000E2008E7F8093E2008091E20080618093E2008091D80080628093D80019BC85E049
:207AA0008EBB1CD28091E10084FF2CC08091E20084FF28C080E189BD82E189BD09B400FEC5
:207AC000FDCF8091D8008F7D8093D8008091E1008F7E8093E1008091E2008F7E8093E20012
:207AE0008091E20081608093E2008091B401882331F48091E30087FD02C081E001C084E067
:207B00008EBBECD18091E10083FF21C08091E20083FF1DC08091E100877F8093E10082E06A
:207B20008EBB1092B4018091E1008E7F8093E1008091E2008E7F8093E2008091E2008061E9
:207B40008093E20080E060E042E0D8DEC7D1FF91EF91BF91AF919F918F917F916F915F9130
:207B60004F913F912F910F900FBE0F901F9018959C014091BC015091BD014617570718F49D
:207B8000F90190E044C06115710511F0AB01F8CF8091E8008E778093E80040E050E0F0CF0F
:207BA0008EB3882309F444C0853009F443C08091E80083FF02C081E008958091E80082FD70
:207BC00031C08091E80080FF22C08091F3009091F200782F60E0292F30E0262B372B07C07A
:207BE00081918093F100415050402F5F3F4F4115510519F02830310598F390E02830310566
:207C000009F491E08091E8008E778093E8004115510531F6992321F605C08EB3882341F075
:207C2000853041F08091E80082FFF7CF80E0089582E0089583E008959C016115710529F47C
:207C40008091E8008B778093E800F90126C08EB3882391F1853091F18091E80083FF02C06C
:207C600081E008958091E80082FFF1CF06C08091F10081936150704059F02091F300809191
:207C8000F200322F20E090E0822B932B892B79F78091E8008B778093E80061157105B9F601
:207CA00005C08EB3882341F0853041F08091E80080FFF7CF80E0089582E0089583E00895C2
:207CC0000F931F93DF93CF9300D0CDB7DEB7E6EBF1E08091F100819381E0EE3BF807C9F792
:207CE00024DD8091E80083FFE4C08091B6019091B701953009F46DC0963040F4913081F1A7
:207D0000913070F0933009F0D4C02AC0983009F4A3C0993009F4B2C0963009F0CAC07CC023
:207D2000803809F4C6C0823809F0C3C08091BA0187708093E9008091EB001092E9002091DB
:207D4000E800277F2093E80090E025E0969587952A95E1F781708093F1001092F10087C0D8
:207D6000882319F0823009F0A4C08F71823009F0A0C08091B801882331F52091BA01277097
:207D800009F497C02093E9008091EB0080FF1BC0933021F48091EB00806213C08091EB0018
:207DA00080618093EB0081E090E002C0880F991F2A95E2F78093EA001092EA008091EB00E5
:207DC00088608093EB001092E9008091E800877F51C0882309F06DC01091B8011F770FB79B
:207DE000F8948091E800877F8093E8009ADD8091E80080FFFCCF8091E3008078812B809398
:207E0000E30080688093E300112311F482E001C083E08EBB0FBF4DC08058823008F049C033
:207E20008091B8019091B9016091BA01AE014F5F5F4F36DDBC01009709F43BC08091E8008E
:207E4000877F8093E80089819A8192DE8091E8008B778093E8002DC0803859F58091E800AA
:207E6000877F8093E8008091B4018093F1008091E8008E778093E80054DD1BC08823C9F4CA
:207E80009091B8019230A8F48091E800877F8093E8009093B40145DD8091B401882331F420
:207EA0008091E30087FD02C081E001C084E08EBB6CDC8091E80083FF0AC08091EB0080624E
:207EC0008093EB008091E800877F8093E8000F900F90CF91DF911F910F91089508951F9360
:207EE0008EB3882361F01091E9001092E9008091E80083FF01C0E4DE17701093E9001F916F
:207F00000895F999FECF92BD81BDF89A992780B50895262FF999FECF1FBA92BD81BD20BDBD
:207F20000FB6F894FA9AF99A0FBE01960895F894FFCF4341544552494E4100777700080031
:207F40000000000000080112011001020000084123370001000201000109023E00020100FE
:207F600080320904000001020201000524001001042402040524060001070582030800FF0C
:207F800009040100020A000000070504021000010705830210000104030904220341007216
:207FA000006400750069006E006F0020004D006900630072006F0020002000200000001810
:1A7FC00003410072006400750069006E006F0020004C004C004300000000D7
:00000001FF
